:060000000A128A110C280F
:10000800FE00030EF6000A08F7000A168A1576297C
:100018000A128A110F288317BC30FD001930FE0020
:100028004A30FF00903084000A168A1575200A129B
:100038008A118313F030FD000730FE00F530FF0011
:10004800E53084000A168A1575200A128A1183176A
:10005800BC308400E1300A168A1554200A128A112D
:100068008313C3308400E5300A168A1554200A1217
:100078008A11EF01F801F901FA01FB01FC01FD0108
:1000880083010A168A111F29831203133508BF003A
:100098008030BF053508BA003A07C500B41F552897
:1000A800562857284514450803195B285C286B28EF
:1000B800450A031D6028612869280030B500003012
:1000C800B4000030B3000030B200B4177328003019
:1000D800B5000030B4000030B3000030B200390879
:1000E8008039BF063908BA003A07C400B81F7D280E
:1000F8007E287F28441444080319832884289328D9
:10010800440A031D8828892891280030B900003046
:10011800B8000030B7000030B600B8179B28003090
:10012800B9000030B8000030B7000030B60044080D
:1001380003199F28A028A5284508031DA428A52839
:10014800AE280030B5000030B4000030B3000030F5
:10015800B200892B3208A00038080A168A15212116
:100168000A128A11831203132108CB002008CA003F
:100178004A08BA00BB01BC01BD013D08C3003C08E8
:10018800C2003B08C1003A08C0004B08BA00BB01D6
:10019800BC01BD013D08C9003C08C8003B08C700B8
:1001A8003A08C6003308A00037080A168A15212124
:1001B8000A128A11831203132108CB002008CA00EF
:1001C8004A08BA00BB01BC01BD013A08C0073B0898
:1001D80003110318013E0319F228C1073C08031153
:1001E8000318013E0319F928C2073D080311031833
:1001F800013E03190029C3074B08BA00BB01BC0123
:10020800BD013A08C6073B0803110318013E03194C
:100218000E29C7073C0803110318013E03191529C5
:10022800C8073D0803110318013E03191C29C90713
:100238003408A00036080A168A1521210A128A11E4
:10024800831203132108CB002008CA004A08BA0009
:10025800BB01BC01BD013A08C0073B0803110318E4
:10026800013E03193829C1073C0803110318013E50
:1002780003193F29C2073D0803110318013E03195A
:100288004629C3074B08BA00BB01BC01BD013A08A7
:10029800C6073B0803110318013E03195429C70771
:1002A8003C0803110318013E03195B29C8073D08E0
:1002B80003110318013E03196229C9070830BA005F
:1002C8000310C00DC10DC20DC30DBA0B642933084C
:1002D800A00036080A168A1521210A128A118312EB
:1002E80003132108CB002008CA004A08BA004B08AB
:1002F800BB00BC01BD013A08C0073B080311031845
:10030800013E03198829C1073C0803110318013E5F
:1003180003198F29C2073D0803110318013E031969
:100328009629C3073208A00037080A168A15212122
:100338000A128A11831203132108CB002008CA006D
:100348004A08BA004B08BB00BC01BD013A08C00707
:100358003B0803110318013E0319B329C1073C08E0
:1003680003110318013E0319BA29C2073D080311F6
:100378000318013E0319C129C3070830BA00031046
:10038800C00DC10DC20DC30DBA0BC3293208A000A0
:1003980036080A168A1521210A128A1183120313B4
:1003A8002108CB002008CA004A08BA004B08BB0045
:1003B800BC01BD013A08C0073B0803110318013E00
:1003C8000319E729C1073C0803110318013E031963
:1003D800EE29C2073D0803110318013E0319F52948
:1003E800C3073308A00038080A168A1521210A1203
:1003F8008A11831203132108CB002008CA004A0877
:10040800BA004B08BB00BC01BD013A08C6073B084F
:1004180003110318013E0319122AC7073C080311E8
:100428000318013E0319192AC8073D0803110318C8
:10043800013E0319202AC9073408A00037080A1604
:100448008A1521210A128A11831203132108CB006D
:100458002008CA004A08BA004B08BB00BC01BD010D
:100468003A08C6073B0803110318013E03193D2A41
:10047800C7073C0803110318013E0319442AC8079B
:100488003D0803110318013E03194B2AC907340814
:10049800A00038080A168A1521210A128A11831227
:1004A80003132108CB002008CA004A08BA004B08E9
:1004B800BB00BC01BD0108300310BA0DBB0DBC0D5B
:1004C800BD0DFF3E031D602A3A08C6073B0803110D
:1004D8000318013E0319712AC7073C0803110318C2
:1004E800013E0319782AC8073D0803110318013E85
:1004F80003197F2AC9074008BA004108BB0042080F
:10050800BC004308BD0018300310BD0CBC0CBB0C6C
:10051800BA0CFF3E031D882A3A08C6073B08031198
:100528000318013E0319992AC7073C080311031849
:10053800013E0319A02AC8073D0803110318013E0C
:100548000319A72AC9070830BA000310C00DC10D46
:10055800C20DC30DBA0BA92A45084407BA00BB014E
:10056800BB0D3A08823ECA003B080318013EFF3E15
:10057800CB00DB2A0130BA000310C60DC70DC80D29
:10058800C90DBA0BC02AC31FCA2ACB2ACC2A4614C3
:100598000130BA000310C00DC10DC20DC30DBA0B56
:1005A800CE2AFF30CA070318CB0AFF30CB07C81F73
:1005B800DE2ADF2ABE2AC401C31FE32AE42A002B4D
:1005C800FF304005BA00FF304105BB00FF3042054F
:1005D800BC007F304305BD003D083C043B043A04A1
:1005E8000319F72AF82AFB2A0130C400002B461CFD
:1005F800FE2AFF2A002BF82A44080319042B052B8E
:10060800362B0130C607003003180130C707003009
:1006180003180130C807003003180130C907491C06
:10062800162B172B362B4608BA004708BB0048087C
:10063800BC004908BD000130BE003D0DBD0CBC0C1E
:10064800BB0CBA0CBE0B212B3D08C9003C08C800E6
:100658003B08C7003A08C6000130CA070318CB0A8E
:100668000030CB074B08803AFF0080307F02031D23
:100678003F2BFF304A02031C422B432B4E2B7F306B
:1006880083120313C9008030C8000030C70000304F
:10069800C6007F2B831203134B08803AFF0080307B
:1006A8007F02031D592B01304A0203185C2B5D2B76
:1006B800692B003083120313C9000030C8000030D2
:1006C800C7000030C600BF017F2B831203134A08FE
:1006D800C500FF30C605FF30C7057F30C8050030AC
:1006E800C905451C782B792B7A2BC8174508BA0001
:1006F80003103A0CC9003F08C9044908B500480866
:10070800B4004708B3004608B20008008316031374
:10071800230883120313B9008316031322088312D4
:100728000313B80083160313210883120313B700B9
:1007380083160313200883120313B6004130B50053
:100748002030B4000030B3000030B2000A128A1121
:1007580048200A128A11831203133508D30034087B
:10076800D2003308D1003208D0003F30CF0000302B
:10077800CE000030CD000030CC000A168A11B0251A
:100788000A128A11831203134F08E3004E08E2008D
:100798004D08E1004C08E0000A168A15EE230A12FB
:1007A8008A1183120313610883160313BB00831293
:1007B8000313600883160313BA003B08803AFF004E
:1007C80080307F02031DEA2B64303A020318ED2BB8
:1007D800EE2B622C0A3083120313A8000030A90004
:1007E8000A30A0000030A100831603133B088312CF
:1007F8000313A300831603133A0883120313A200FA
:100808000A168A15BA220A128A11831203132108BA
:10081800AB002008AA000A168A1561220A128A115A
:1008280083120313290883160313A90083120313E1
:10083800280883160313A8000A3083120313A8009C
:100848000030A900831603133B0883120313AB007F
:10085800831603133A0883120313AA000A168A158B
:1008680061220A128A1183120313290883160313BB
:10087800AB0083120313280883160313AA00240865
:100888008400831380012508840080012808B23E73
:100898008400831700080138FF00260884007F08B9
:1008A800831380002A08A83E840083170008FF00ED
:1008B800270884007F0883138000222E6430831663
:1008C80003133A063B04031D6A2C6B2C812C240865
:1008D8008400831380012508840080012608840091
:1008E8008316031733088000831603132708840030
:1008F8008316031728088000222E3B08803AFF0041
:1009080083307F02031D8A2CE8303A0203188D2CAD
:100918008E2C3C2D0A3083120313A8000030A90046
:100928006430A0000030A100831603133B08831233
:100938000313A300831603133A0883120313A200B8
:100948000A168A15BA220A128A1183120313210879
:10095800AB002008AA000A168A1561220A128A1119
:1009680083120313290883160313AD00831203139C
:10097800280883160313AC000A3083120313A80057
:100988000030A9000A30A0000030A100831603132C
:100998003B0883120313A300831603133A08831238
:1009A8000313A2000A168A15BA220A128A118312A0
:1009B80003132108AB002008AA000A168A15612231
:1009C8000A128A1183120313290883160313AF002E
:1009D80083120313280883160313AE000A30831208
:1009E8000313A8000030A900831603133B088312E1
:1009F8000313AB00831603133A0883120313AA00E8
:100A08000A168A1561220A128A1183120313290809
:100A180083160313B10083120313280883160313E4
:100A2800B00024088400831380012C08A83E8400A9
:100A380083170008FF00250884007F0883138000BF
:100A48002E08B23E8400831700080138FF002608EC
:100A580084007F08831380003008A83E8400831731
:100A68000008FF00270884007F0883138000222ED7
:100A78000A3083120313A8000030A900E830A00050
:100A88000330A100831603133B0883120313A3004A
:100A9800831603133A0883120313A2000A168A1551
:100AA800BA220A128A11831203132108AB00200804
:100AB800AA000A168A1561220A128A1183120313E0
:100AC800290883160313B300831203132808831617
:100AD8000313B2000A3083120313A8000030A900E0
:100AE8006430A0000030A100831603133B08831272
:100AF8000313A300831603133A0883120313A200F7
:100B08000A168A15BA220A128A11831203132108B7
:100B1800AB002008AA000A168A1561220A128A1157
:100B280083120313290883160313B50083120313D2
:100B3800280883160313B4000A3083120313A8008D
:100B48000030A9000A30A0000030A100831603136A
:100B58003B0883120313A300831603133A08831276
:100B68000313A2000A168A15BA220A128A118312DE
:100B780003132108AB002008AA000A168A1561226F
:100B88000A128A1183120313290883160313B70064
:100B980083120313280883160313B6000A3083123E
:100BA8000313A8000030A900831603133B0883121F
:100BB8000313AB00831603133A0883120313AA0026
:100BC8000A168A1561220A128A1183120313290848
:100BD80083160313B900831203132808831603131B
:100BE800B8003208B23E840083170008FF002408CA
:100BF80084007F08831380003408A83E840083178C
:100C08000008FF00250884007F0883138000360849
:100C1800B23E8400831700080138FF0026088400CC
:100C28007F08831380003808A83E840083170008D3
:100C3800FF00270884007F088313800008005C08F1
:100C4800031D272E282E982E02300A168A15642492
:100C58000A128A11831603132908CA002808C90032
:100C68002708C8002608C7004A0883120313E300B0
:100C780083160313490883120313E2008316031330
:100C8800480883120313E1008316031347088312ED
:100C98000313E0004030E7000030E6000030E500D4
:100CA8000030E4000A168A15E6240A128A1103188D
:100CB8005E2E5F2E8D2E831603134F08031D652E9F
:100CC800662E6F2E1E30E400F130E3003E30E20065
:100CD800C330E100772E2C30E4008730E3003E304B
:100CE800E200C330E1004F0803197B2E7D2E01304E
:100CF8007E2E0030CF000130D500FA308312031366
:100D0800A0000030A1000A168A15A8210A128A112B
:100D1800982E763083160313E400E330E3003C306A
:100D2800E200E1010130D5000230831603135C06AE
:100D3800031D9F2EA02E3F2F323083120313E6008F
:100D480000300A168A1540260A128A1183120313E4
:100D5800690883160313E0008312031368088316D7
:100D68000313DF0083120313670883160313DE00DF
:100D780083120313660883160313DD0044308312BD
:100D88000313CF004B30CE008030CD000030CC00B4
:100D98004130B5002030B4000030B3000030B2005C
:100DA80083160313600883120313B9008316031311
:100DB8005F0883120313B800831603135E088312B7
:100DC8000313B700831603135D0883120313B600D9
:100DD8000A128A1148200A128A118312031335084D
:100DE800D3003408D2003308D1003208D0000A16E4
:100DF8008A11E6230A128A11831203134F088316F5
:100E08000317DB00831203134E0883160317DA0057
:100E1800831203134D0883160317D9008312031393
:100E28004C0883160317D8005B0883160313A30026
:100E3800831603175A0883160313A2008316031791
:100E4800590883160313A10083160317580883163D
:100E58000313A000E430A400E330A500E230A600AC
:100E6800E130A7000A128A118A230A128A11013076
:100E780083160313D50003305C06031D442F472F48
:100E88000A128A1542285708031D4B2F4C2F6C2F26
:100E980083120313071C512F522F6C2F0A30A00006
:100EA8000030A1000A168A15A8210A128A11831295
:100EB8000313071C602F612F6C2F01308316031357
:100EC800DB0703305B02031C6A2F6B2F6C2FDB01DF
:100ED800003083120718013083160313D700560811
:100EE800031D772F782F992F83120313871C7D2FCB
:100EF8007E2F992F0A30A0000030A1000A168A150B
:100F0800A8210A128A1183120313871C8C2F8D2F94
:100F1800992F831603135B08031D932F942F972F84
:100F28000230DB00992F0130DB0200308312871872
:100F3800013083160313D6005B08BC00023003108F
:100F4800BC0DFF3E031DA32F03103C0D943E8400EF
:100F580083170008E4005B08BC0002300310BC0DD6
:100F6800FF3E031DB22F03103C0D953E8400000880
:100F7800E3005B08BC0002300310BC0DFF3E031DFC
:100F8800C02F03103C0D963E84000008E2005B0869
:100F9800BC0002300310BC0DFF3E031DCE2F031012
:100FA8003C0D973E84000008E1005B08BC0002305D
:100FB8000310BC0DFF3E031DDC2F03103C0D903EBB
:100FC80084000008E500840A0008E600840A000896
:100FD800E700840A0008E8000130D5000A128A15E3
:100FE800472800340034683441340534003401346F
:080FF80001340134013401341D
:10100400F500750883120313860007120330F400F9
:101014009730F300F30B0C28F40B0C2811288312DF
:10102400031307167008860087130330F400973003
:10103400F300F30B1B28F40B1B2820288312031343
:1010440087177108860007130330F4009730F30004
:10105400F30B2A28F40B2A282F28831203130717CB
:101064007208860087120330F4009730F300F30B04
:101074003928F40B39283E288312031387160800F5
:1010840004305C06031D47284A280A168A1152298F
:101094003230E9000030EA0069080A168A1585230F
:1010A4000A128A1502300A168A1564240A128A154D
:1010B400831603132908CA002808C9002708C80092
:1010C4002608C700403083120313E3000030E20017
:1010D4000030E1000030E000831603134A08831255
:1010E4000313E70083160313490883120313E6006E
:1010F40083160313480883120313E50083160313AE
:10110400470883120313E4000A168A15E6240A1218
:101114008A1503188E288F2897288312031305161F
:10112400013083160317DE00A3288312031305126C
:1011340083160317DE010A168A154F200A128A1530
:101144004728323083120313E60001300A168A1549
:1011540040260A128A15831203136908831603139F
:10116400E00083120313680883160313DF0083125D
:101174000313670883160313DE0083120313660840
:1011840083160313DD00443083120313CF004B3066
:10119400CE008030CD000030CC004130B50020308E
:1011A400B4000030B3000030B200831603136008AB
:1011B40083120313B900831603135F088312031306
:1011C400B800831603135E0883120313B700831653
:1011D40003135D0883120313B6000A128A11482010
:1011E4000A128A15831203133508D3003408D20077
:1011F4003308D1003208D0000A168A11E6230A12F5
:101204008A15831203134F0883160317D70083121A
:1012140003134E0883160317D600831203134D08D5
:1012240083160317D500831203134C088316031780
:10123400D400413083120313E3003030E200003065
:10124400E1000030E00083160317570883120313EC
:10125400E70083160317560883120313E600831668
:101264000317550883120313E50083160317540864
:1012740083120313E4000A168A15E6240A128A1557
:101284000318452946296729831603134D084E047C
:10129400031D4D294E2952294C08CE004B08CD0080
:1012A4004D084B02BC004E08031C4E0A4C02BD0004
:1012B40013303D02883003193C02031C6229632960
:1012C4006B29831203130512F02F83160313CD0128
:1012D400CE016B03031D6F297029022A83120313A5
:1012E400851A75297629022A0A30A0000030A10047
:1012F4000A168A15A8210A128A1583120313851A5D
:1013040084298529022A831603135808031D8B296F
:101314008C29CD295403031D90299129CD290A161E
:101324008A154F200A128A15323083120313A00043
:101334000030A1000A168A15A8210A128A150A1675
:101344008A1566200A128A15193083120313A00025
:101354000030A1000A168A15A8210A128A150A1655
:101364008A154F200A128A15C83083120313A0006D
:101374000030A1000A168A15A8210A128A150A1635
:101384008A1566200A128A15013083160313D800C1
:101394000130C200022A5803031DD129D229022A8E
:1013A40002305406031DD729D829022A0A168A15A1
:1013B4004F200A128A15323083120313A000003022
:1013C400A1000A168A15A8210A128A150A168A1576
:1013D4005C200A128A15193083120313A00000300E
:1013E400A1000A168A15A8210A128A150A168A1556
:1013F4004F200A128A15023083160313D800C20143
:1014040000308312851A013083160313EB00831214
:101414000313851E0E2A0F2A122E83160313420865
:10142400031D152A162A122E83120313051E1B2AC6
:101434001C2A122E3230E60001300A168A15402684
:101444000A128A1583120313690883160313E00032
:1014540083120313680883160313DF008312031334
:10146400670883160313DE008312031366088316CA
:101474000313DD00443083120313CF004B30CE003E
:101484008030CD000030CC004130B5002030B400B5
:101494000030B3000030B2008316031360088312D7
:1014A4000313B900831603135F0883120313B800F0
:1014B400831603135E0883120313B7008316031302
:1014C4005D0883120313B6000A128A1148200A1217
:1014D4008A15831203133508D3003408D200330865
:1014E400D1003208D0000A168A11E6230A128A159E
:1014F400831203134F0883160317BF0083120313C9
:101504004E0883160317BE00831203134D08831677
:101514000317BD00831203134C0883160317BC0082
:101524003F0883120313E300831603173E08831254
:101534000313E200831603173D0883120313E1002B
:10154400831603173C0883120313E0008316031762
:101554005B0883120313E700831603175A088312E8
:101564000313E60083160317590883120313E500D7
:1015740083160317580883120313E4000A168A1506
:10158400D5200A128A1583120313630883160313E2
:10159400C60083120313620883160313C500831263
:1015A4000313610883160313C40083120313600832
:1015B40083160313C300831603173F08831603130C
:1015C400A300831603173E0883160313A200831691
:1015D40003173D0883160313A100831603173C0861
:1015E40083160313A000E430A400E330A500E23026
:1015F400A600E130A7000A128A118A230A128A156A
:10160400013083160313D500BC3083120313A000EA
:101614000230A1000A168A15A8210A128A1502307E
:101624000A168A1564240A128A15831603132908D4
:10163400CA002808C9002708C8002608C7004A08A5
:1016440083120313E300831603134908831203135D
:10165400E20083160313480883120313E100831680
:101664000313470883120313E00083160313680867
:1016740083120313E700831603136708831203130B
:10168400E60083160313660883120313E50083162A
:101694000313650883120313E4000A168A15E6246B
:1016A4000A128A15031C572B582B5C2B0130831606
:1016B4000313D100831603135108031D622B632BFC
:1016C400B32D6E03031D672B682BB32D403083129B
:1016D4000313E3000030E2000030E1000030E000DA
:1016E40083160313460883120313E70083160313B8
:1016F400450883120313E600831603134408831278
:101704000313E50083160313430883120313E40051
:101714000A168A15E6240A128A150318922B932BAB
:10172400A92B0A168A155C200A128A15A030831286
:101734000313A0000030A1000A168A15A8210A127A
:101744008A150A168A154F200A128A15B32D4030BD
:1017540083120313E3000030E2000030E1000030A4
:10176400E00083160313460883120313E70083166D
:101774000313450883120313E60083160313440876
:1017840083120313E5008316031343088312031320
:10179400E4000A168A15E6240A128A15031CD32BC0
:1017A400D42B102C3F3083120313E3008030E2006B
:1017B4000030E1000030E000831603134608831272
:1017C4000313E70083160313450883120313E6008B
:1017D40083160313440883120313E50083160313CB
:1017E400430883120313E4000A168A15E6240A1236
:1017F4008A150318FE2BFF2B102C0A168A155C2061
:101804000A128A158C3083120313A0000030A10041
:101814000A168A15A8210A128A15A32B3F308312AF
:101824000313E3008030E2000030E1000030E00008
:1018340083160313460883120313E7008316031366
:10184400450883120313E600831603134408831226
:101854000313E50083160313430883120313E40000
:101864000A168A15E6240A128A15031C3A2C3B2C04
:10187400772C3D3083120313E300CC30E200CC30EC
:10188400E100CD30E00083160313460883120313EE
:10189400E70083160313450883120313E600831637
:1018A4000313440883120313E50083160313430848
:1018B40083120313E4000A168A15E6240A128A1511
:1018C4000318652C662C772C0A168A155C200A12DC
:1018D4008A151E3083120313A0000030A1000A16DB
:1018E4008A15A8210A128A15A32B3D3083120313EB
:1018F400E300CC30E200CC30E100CD30E0008316D0
:101904000313460883120313E700831603134508E1
:1019140083120313E600831603134408831203138C
:10192400E50083160313430883120313E4000A1625
:101934008A15E6240A128A15031CA12CA22CD42C85
:1019440083160313460883120313E3008316031359
:10195400450883120313E200831603134408831219
:101964000313E10083160313430883120313E000F7
:10197400BD30E700CC30E600CC30E500CD30E400EB
:101984000A168A15E6240A128A15031CCA2CCB2CC3
:10199400D42C0A168A154F200A128A1583160313AB
:1019A400EE01B32D83160313460883120313E300D9
:1019B40083160313450883120313E20083160313EB
:1019C400440883120313E1008316031343088312AC
:1019D4000313E000BD30E700CC30E600CC30E50076
:1019E400CD30E4000A168A15E6240A128A15031873
:1019F400FC2CFD2C2C2D8316031346088312031391
:101A0400E30083160313450883120313E2008316CD
:101A14000313440883120313E100831603134308DA
:101A240083120313E000BF30E7008030E60000308B
:101A3400E5000030E4000A168A15E6240A128A1525
:101A4400031C252D262D2C2D0A168A1566200A1214
:101A54008A156B2C83160313460883120313E300C1
:101A640083160313450883120313E200831603133A
:101A7400440883120313E1008316031343088312FB
:101A84000313E000BF30E7008030E6000030E500DB
:101A94000030E4000A168A15E6240A128A1503188F
:101AA400542D552D842D83160313460883120313D6
:101AB400E30083160313450883120313E20083161D
:101AC4000313440883120313E1008316031343082A
:101AD40083120313E000C030E7000030E60000305A
:101AE400E5000030E4000A168A15E6240A128A1575
:101AF400031C7D2D7E2D842D0A168A1566200A125C
:101B04008A15042C83160313460883120313E30077
:101B140083160313450883120313E2008316031389
:101B2400440883120313E10083160313430883124A
:101B34000313E000C030E7000030E6000030E500A9
:101B44000030E4000A168A15E6240A128A150318DE
:101B5400AC2DAD2DB32D0A168A1566200A128A15EE
:101B6400982B831603136E08031DB92DBA2D122E5C
:101B74003D3083120313E300CC30E200CC30E100AB
:101B8400CD30E00083160313460883120313E700E5
:101B940083160313450883120313E6008316031305
:101BA400440883120313E5008316031343088312C6
:101BB4000313E4000A168A15E6240A128A15031C84
:101BC400E42DE52D0E2E831603134608831203130A
:101BD400E30083160313450883120313E2008316FC
:101BE4000313440883120313E10083160313430809
:101BF40083120313E000BD30E700CC30E600CC30A4
:101C0400E500CD30E4000A168A15E6240A128A1586
:101C140003180D2E0E2E122E013083160313EE0020
:101C2400831603135103031D182E192EE22E6D0380
:101C3400031D1D2E1E2EE22E4A0883120313E300F9
:101C440083160313490883120313E2008316031354
:101C5400480883120313E100831603134708831211
:101C64000313E0003D30CF00CC30CE00CC30CD00AB
:101C7400CD30CC0083160313680883120313D300FA
:101C840083160313670883120313D2008316031306
:101C9400660883120313D1008316031365088312A5
:101CA4000313D0000A168A11B0250A128A1583126A
:101CB40003134F08E7004E08E6004D08E5004C0802
:101CC400E4000A168A15E6240A128A15031C6B2EF0
:101CD4006C2E822E0A168A1566200A128A1528305E
:101CE40083120313A0000030A1000A168A15A8214C
:101CF4000A128A150A168A154F200A128A15E22E2C
:101D0400BD3083120313CF00CC30CE00CC30CD00D5
:101D1400CD30CC0083160313680883120313D30059
:101D240083160313670883120313D2008316031365
:101D3400660883120313D100831603136508831204
:101D44000313D0000A168A11B0250A128A158312C9
:101D540003134F08E3004E08E2004D08E1004C086D
:101D6400E000831603134A0883120313E700831663
:101D74000313490883120313E60083160313480868
:101D840083120313E5008316031347088312031316
:101D9400E4000A168A15E6240A128A15031CD32EB7
:101DA400D42EDA2E0A168A155C200A128A15712E90
:101DB4000A168A154F200A128A1583160313ED0199
:101DC400831603136D08031DE82EE92E8F2F3D3073
:101DD40083120313CF00CC30CE00CC30CD00CD30F5
:101DE400CC0083160313680883120313D3008316ED
:101DF4000313670883120313D200831603136608C0
:101E040083120313D100831603136508831203138B
:101E1400D0000A168A11B0250A128A1583120313F8
:101E24004F08E3004E08E2004D08E1004C08E000D2
:101E3400831603134A0883120313E700831603135C
:101E4400490883120313E600831603134808831218
:101E54000313E50083160313470883120313E400F6
:101E64000A168A15E6240A128A15031C3A2F3B2FF8
:101E74008B2F831603134A0883120313E30083167C
:101E84000313490883120313E2008316031348085B
:101E940083120313E1008316031347088312031309
:101EA400E000BD30CF00CC30CE00CC30CD00CD3002
:101EB400CC0083160313680883120313D30083161C
:101EC4000313670883120313D200831603136608EF
:101ED40083120313D10083160313650883120313BB
:101EE400D0000A168A11B0250A128A158312031328
:101EF4004F08E7004E08E6004D08E5004C08E400F2
:101F04000A168A15E6240A128A1503188A2F8B2FBB
:101F14008F2F013083160313ED00831603134A0831
:101F2400A3004908A2004808A1004708A000E43023
:101F3400A400E330A500E230A600E130A7000A12B5
:101F44008A118A230A128A15013083160313D500D5
:101F5400583083120313A0000230A1000A168A1518
:101F6400A8210A128A158316031359080A168A151A
:101F7400DC210A128A15583083120313A0000230A0
:101F8400A1000A168A15A8210A128A1583160313BA
:101F9400D5016808A3006708A2006608A1006508C7
:101FA400A000E430A400E330A500E230A600E13054
:101FB400A7000A128A118A230A128A15013083168D
:101FC4000313D500583083120313A0000230A1007C
:101FD4000A168A15A8210A128A1547283C30831646
:101FE4000313E4008130E3002830E200F130E10023
:0C1FF4000130D500F02F0A128A110C28D1
:102008000430831603138100833083120313810085
:102018000B118B168B170800831603134A088312BB
:102028000313E30083160313490883120313E20022
:1020380083160313480883120313E100831603135E
:10204800470883120313E0004230E7002030E6001F
:102058000030E5000030E4000A168A15E6240A1666
:102068008A11031C382839286B28831603134A0859
:1020780083120313E300831603134908831203131F
:10208800E20083160313480883120313E100831642
:102098000313470883120313E0004230E70054306B
:1020A800E6000030E5000030E4000A168A15E62450
:1020B8000A168A110318612862286B2804308316CF
:1020C8000313D9000130D2000A168A11DC2B8316BB
:1020D80003134A0883120313E30083160313490802
:1020E80083120313E20083160313480883120313B1
:1020F800E10083160313470883120313E0004230FC
:10210800E7005430E6000030E5000030E4000A162D
:102118008A15E6240A168A11031C93289428C428D1
:10212800831603134A0883120313E3008316031369
:10213800490883120313E200831603134808831225
:102148000313E10083160313470883120313E00007
:102158004230E7008430E6000030E5000030E4005B
:102168000A168A15E6240A168A110318BC28BD28FF
:10217800C428053083160313D9000130D20068281B
:10218800831603134A0883120313E3008316031309
:10219800490883120313E2008316031348088312C5
:1021A8000313E10083160313470883120313E000A7
:1021B8004230E7008430E6000030E5000030E400FB
:1021C8000A168A15E6240A168A11031CEC28EF2839
:1021D8000A168A11742A831603134A0883120313F2
:1021E800E30083160313490883120313E2008316DE
:1021F8000313480883120313E100831603134708E7
:1022080083120313E0004230E7009E30E6000030FE
:10221800E5000030E4000A168A15E6240A168A1139
:10222800031817291829EC28063083160313D90038
:102238000130D20068287430831603138F000A1601
:102248008A159C200A168A110A168A1104200A1671
:102258008A110A168A15B6200A168A110A168A15CC
:1022680084200A168A116E3083160313E40057304F
:10227800E3006C30E200E1010130D500F430831254
:102288000313A0000130A1000A168A15A8210A1616
:102298008A11013083160313C100C20102300A16E5
:1022A8008A1564240A168A11831603132908CA009A
:1022B8002808C9002708C8002608C7005208031DB7
:1022C800662969290A168A11DC2B4A088312031326
:1022D800E30083160313490883120313E2008316ED
:1022E8000313480883120313E100831603134708F6
:1022F80083120313E0000030E7000030E6000030EE
:10230800E5000030E4000A168A15E6240A168A1148
:10231800031C8F299029C029831603134A088312A6
:102328000313E30083160313490883120313E2001F
:1023380083160313480883120313E100831603135B
:10234800470883120313E0004130E7006030E600DD
:102358000030E5000030E4000A168A15E6240A1663
:102368008A110318B829B929C02901308316031323
:10237800D9000130D2006629831603134A08831254
:102388000313E30083160313490883120313E200BF
:1023980083160313480883120313E10083160313FB
:1023A800470883120313E0004130E7006030E6007D
:1023B8000030E5000030E4000A168A15E6240A1603
:1023C8008A11031CE829E929192A831603134A08E4
:1023D80083120313E30083160313490883120313BC
:1023E800E20083160313480883120313E1008316DF
:1023F8000313470883120313E0004130E700D83085
:10240800E6000030E5000030E4000A168A15E624EC
:102418000A168A110318112A122A192A0230831659
:102428000313D9000130D2006629831603134A0822
:1024380083120313E300831603134908831203135B
:10244800E20083160313480883120313E10083167E
:102458000313470883120313E0004130E700D83024
:10246800E6000030E5000030E4000A168A15E6248C
:102478000A168A11031C412A442A0A168A111028AE
:10248800831603134A0883120313E3008316031306
:10249800490883120313E2008316031348088312C2
:1024A8000313E10083160313470883120313E000A4
:1024B8004230E7002030E6000030E5000030E4005C
:1024C8000A168A15E6240A168A1103186C2A6D2A38
:1024D800412A033083160313D9000130D20066293C
:1024E800831603134A0883120313E30083160313A6
:1024F800490883120313E200831603134808831262
:102508000313E10083160313470883120313E00043
:102518004230E7009E30E6000030E5000030E4007D
:102528000A168A15E6240A168A11031C9C2A9D2A73
:10253800CD2A831603134A0883120313E300831674
:102548000313490883120313E20083160313480890
:1025580083120313E100831603134708831203133E
:10256800E0004230E700B830E6000030E500003017
:10257800E4000A168A15E6240A168A110318C52AE1
:10258800C62ACD2A073083160313D9000130D2009A
:10259800DC2B831603134A0883120313E300831604
:1025A8000313490883120313E20083160313480830
:1025B80083120313E10083160313470883120313DE
:1025C800E0004230E700B830E6000030E5000030B7
:1025D800E4000A168A15E6240A168A11031CF52A4D
:1025E800F62A262B831603134A0883120313E300E3
:1025F80083160313490883120313E2008316031397
:10260800480883120313E100831603134708831253
:102618000313E0004230E700D230E6000030E50066
:102628000030E4000A168A15E6240A168A110318EF
:102638001E2B1F2B262B083083160313D9000130BD
:10264800D200DC2B831603134A0883120313E3001A
:1026580083160313490883120313E2008316031336
:10266800480883120313E1008316031347088312F3
:102678000313E0004230E700D230E6000030E50006
:102688000030E4000A168A15E6240A168A11031C8B
:102698004E2B4F2B7F2B831603134A0883120313E9
:1026A800E30083160313490883120313E200831619
:1026B8000313480883120313E10083160313470822
:1026C80083120313E0004230E700EC30E6000030EC
:1026D800E5000030E4000A168A15E6240A168A1175
:1026E8000318772B782B7F2B093083160313D90017
:1026F8000130D200DC2B831603134A08831203131C
:10270800E30083160313490883120313E2008316B8
:102718000313480883120313E100831603134708C1
:1027280083120313E0004230E700EC30E60000308B
:10273800E5000030E4000A168A15E6240A168A1114
:10274800031CA72BA82BD82B831603134A08831224
:102758000313E30083160313490883120313E200EB
:1027680083160313480883120313E1008316031327
:10277800470883120313E0004330E7000330E60004
:102788000030E5000030E4000A168A15E6240A162F
:102798008A110318D02BD12BD82B0A308316031398
:1027A800D9000130D200DC2BFF3083160313D90087
:1027B80083120313871DE32B0A168A15FB2E0A16AC
:1027C8008A15A32F831203135308DD008030DD051B
:1027D8005308D4005407E400D21FF32BF42BF52B35
:1027E800641464080319F92BFA2B0A2C640A031DD4
:1027F800FE2BFF2B072C0030D3000030D200003016
:10280800D1000030D000D217D301122C0030D300F1
:102818000030D2000030D1000030D0004F0880399D
:10282800DD064F08D4005407E500CE1F1C2C1D2CD4
:102838001E2C651465080319222C232C332C650AD9
:10284800031D272C282C302C0030CF000030CE0060
:102858000030CD000030CC00CE17CF013B2C00302B
:10286800CF000030CE000030CD000030CC004F0843
:102878004E044D044C04031D422C432C5A2C0030AA
:10288800D3000030D2000030D1000030D0008030BA
:10289800D2047F30D3045D08D3045308CF00520814
:1028A800CE005108CD005008CC00AF2D6408031DA0
:1028B8005E2C5F2C682C0030CF000030CE0000303A
:1028C800CD000030CC00AF2D6408D400D5015508E8
:1028D800D70065085402D600031CD70356087F3E6C
:1028E800DE0057080318013E003EDF005308DC00F5
:1028F8005208DB005108DA005008D9000030D30034
:102908000030D2000030D1000030D0000030E300A9
:102918000030E2000030E1000030E000E501DC2C8E
:1029280065080319982C992CB92C0130D400031090
:10293800D90DDA0DDB0DDC0DD40B9B2C0130D40046
:102948000310D00DD10DD20DD30DD40BA42CE31F41
:10295800AE2CAF2CB02C50140130D4000310E00D75
:10296800E10DE20DE30DD40BB22C4F085C02031D00
:10297800C72C4E085B02031DC72C4D085A02031DC5
:10298800C72C4C085902031CCA2CCB2CDA2C631711
:102998004C08D9024D08031C4D0FDA024E08031CDF
:1029A8004E0FDB024F08031C4F0FDC020130E50716
:1029B8001A306502031CE12CE22C942C5C085B04A1
:1029C8005A0459040319E92CEA2C092D6014092D1D
:1029D8000130D4000310D00DD10DD20DD30DD40B7E
:1029E800EE2CE31FF82CF92CFA2C50140130D400EB
:1029F8000310E00DE10DE20DE30DD40BFC2CFF30CC
:102A0800DE070318DF0AFF30DF07D21F0C2D0D2D5C
:102A1800EC2CE501E31F112D122D2E2DFF30600542
:102A2800D400FF306105D500FF306205D6007F3045
:102A38006305D70057085604550454040319252D77
:102A4800262D292D0130E5002E2D501C2C2D2D2D45
:102A58002E2D262D65080319322D332D642D0130B6
:102A6800D007003003180130D107003003180130B7
:102A7800D207003003180130D307531C442D452DCD
:102A8800642D5008D4005108D5005208D6005308C8
:102A9800D7000130D800570DD70CD60CD50CD40C64
:102AA800D80B4F2D5708D3005608D2005508D1002F
:102AB8005408D0000130DE070318DF0A0030DF07B2
:102AC8005F08803AFF0080307F02031D6D2DFF30C4
:102AD8005E02031C702D712D7F2DFF3083120313AE
:102AE800DE000030DF000030D3000030D2000030BC
:102AF800D1000030D000831203135F08803AFF0032
:102B080080307F02031D8A2D01305E0203188D2D4F
:102B18008E2D9B2D83120313DE01DF010030D300BD
:102B28000030D2000030D1000030D000DD01831227
:102B380003135E08E400641CA22DA32DA52DD21753
:102B4800A72D7F30D2056408D4000310540CD3009D
:102B58005D08D304512C0800831203134F08DC00CE
:102B68008030DC054F08D4005407DE00CE1FBD2D91
:102B7800BE2DBF2D5E145E080319C32DC42DD42DA0
:102B88005E0A031DC82DC92DD12D0030CF0000309D
:102B9800CE000030CD000030CC00CE17CF01DC2DA8
:102BA8000030CF000030CE000030CD000030CC0027
:102BB8005308DD008030DD055D085C060319E52D4E
:102BC800E62DE72D5C175308D4005407DD00D21F0B
:102BD800EE2DEF2DF02D5D145D080319F42DF52D64
:102BE800052E5D0A031DF92DFA2D022E0030D300A3
:102BF8000030D2000030D1000030D000D217D3010D
:102C08000D2E0030D3000030D2000030D10000304B
:102C1800D0005E085D020318122E132E372E5C1F9B
:102C2800162E172E192E8030DC065E08DF005D0890
:102C3800DE005F08DD004C08DF005008CC005F08AC
:102C4800D0004D08DF005108CD005F08D1004E08C4
:102C5800DF005208CE005F08D2004F08DF0053089B
:102C6800CF005F08D300DF015D08D400D501550807
:102C7800D7005E085402D600031CD7035708803AD1
:102C8800FF0080307F02031D4B2E1A305602031CB2
:102C98004E2E4F2E842E831203134F084E044D04DC
:102CA8004C04031D582E5A2E01305B2E0030DF00D5
:102CB8000030CF000030CE000030CD000030CC0016
:102CC8005D08DE008C2E5F1C6A2E6B2E722E5F084C
:102CD800D4000310540C0138DF00742E0310DF0CED
:102CE8004C1C772E782E792EDF170130D4004F0D2B
:102CF800CF0CCE0CCD0CCC0CD40B7B2E0130DE07C8
:102D0800831203135D085E02031C8B2E8C2E672E24
:102D18005C1B8F2E902ED72E5E08031D942E952EA9
:102D28009E2E0030CF000030CE000030CD000030A5
:102D3800CC00FF2F5008CC07510803110318013E9F
:102D48000319A72ECD07520803110318013E0319D2
:102D5800AE2ECE07530803110318013E0319B52EF2
:102D6800CF074F1CB82EB92E8B2F5F1CBC2EBD2E43
:102D7800C42E5F08D4000310540C0138DF00C62E9F
:102D88000310DF0C4C1CC92ECA2ECB2EDF170130C6
:102D9800D4004F0DCF0CCE0CCD0CCC0CD40BCD2EBB
:102DA8000130DE078B2F4F08803AFF005308803A26
:102DB8007F02031DE92E52084E02031DE92E510819
:102DC8004D02031DE92E50084C020318EC2EED2E7F
:102DD800442FFF30D400FF30D500FF30D600FF303D
:102DE800D7005008D8005108D9005208DA00530813
:102DF800DB004C08D8024D08031C4D0F042F052F8B
:102E0800D9024E08031C4E0F0A2F0B2FDA024F0867
:102E1800031C4F0F102F112FDB025808D407590835
:102E28000318590F182F192FD5075A0803185A0FC6
:102E38001E2F1F2FD6075B0803185B0AD7075708F2
:102E4800CF005608CE005508CD005408CC0080307D
:102E5800DC065F03FF3ADF005F08031D342F352FC0
:102E6800522F0130CC07003003180130CD07003055
:102E780003180130CE07003003180130CF07522F56
:102E88005008CC025108031C510FCD025208031CF4
:102E9800520FCE025308031C530FCF024F084E04A3
:102EA8004D044C04031D592F5A2F872F5F08031D0B
:102EB8005E2F5F2F872F0030CF000030CE0000300C
:102EC800CD000030CC00FF2F0130D4000310CC0D12
:102ED800CD0DCE0DCF0DD40B6A2FDF1F742F752F9C
:102EE800762F4C145F1C792F7A2F7E2F03145F0DD9
:102EF800DF00802F0310DF0D5E080319842F852F54
:102F0800872F0130DE02CE1F8A2F8B2F682FDD011D
:102F1800DF1F8F2F902F9E2F5F087F390319952F62
:102F2800962F992F0130DD009E2F4C1C9C2F9D2F32
:102F38009E2F962F5D080319A22FA32FD52F01309E
:102F4800CC07003003180130CD07003003180130DA
:102F5800CE07003003180130CF074F1CB42FB52F10
:102F6800D52F4C08D4004D08D5004E08D6004F0880
:102F7800D7000130D800570DD70CD60CD50CD40C7F
:102F8800D80BBF2F5708CF005608CE005508CD00E4
:102F98005408CC005E0A0319D22FD32FD52F013045
:102FA800DE075E0A0319D92FDA2FDF2F5E08031D0B
:102FB800DE2FDF2FED2F0030CF000030CE000030A5
:102FC800CD000030CC005E08031DEB2FEC2FED2F59
:102FD800DC015E1CF02FF12FF32FCE17F52F7F3079
:102FE800CE055E08D4000310540CCF00DC1FFD2F63
:082FF800FE2FFF2FCF17080088
:10309E008312031305138513080064008001840A4C
:1030AE00040603190034040655288312031305176A
:1030BE008513013083160313D400D8010800831240
:1030CE00031305138517023083160313D400013042
:1030DE00D80008007E088A007F0882000A168A152A
:1030EE0071200A168A158000840A04087D060319C9
:1030FE000034FF0A0319FE0A7528831603130711FD
:10310E007C309200831203131708F0390C389700A5
:10311E000330920491019501CF3097058316031366
:10312E008C108312031312150800831603138715D0
:10313E0005138513851605120712871207138713B9
:10314E0007148714071186018312031307168717B6
:10315E0007178716051385130512860108008316B7
:10316E0003130514851405150730831603178800FD
:10317E008901831603139F17831203131F083F3908
:10318E0080389F001F140D3083120313A100FB30F3
:10319E00A000A00BD028A10BD028080080308312ED
:1031AE000313E3066708CF006608CE006508CD005E
:1031BE006408CC006308D3006208D2006108D10015
:1031CE006008D0000A168A11B0250A168A158312D5
:1031DE0003134F08E3004E08E2004D08E1004C08CF
:1031EE00E000080083120313A300C3309F052308D9
:1031FE00A20001300310A20DFF3E031D0129031092
:10320E00220D9F04053083120313A200A20B0D2979
:10321E001029831203131F149F149F18172918299E
:10322E0014291E08A100831603131E08831203130C
:10323E00A000080083120313A800A401A501200812
:10324E00A200A3012208A6002308A700281C3029EB
:10325E00312937292608A4070318A50A2708A50728
:10326E0001300310A60DA70DFF3E031D38290310D4
:10327E00A80C2808031D442945292D292508A1003D
:10328E002408A00008000034003468344134AE3401
:10329E0081342C34F5340034003478344134FA342B
:1032AE0063342834973400340034803441343C3451
:1032BE0081343E34573477341434B334B634D43482
:1032CE00E634C7343434F734F434EE348234DC3438
:1032DE00D634B23476343E34C234FE34F2340B1D5E
:1032EE0079297A29A129831603135503031D8029F1
:1032FE0081298A29D5016408FB006308FA00620857
:10330E00F9006108F8000130CB070318CC0A003031
:10331E00CC077A08F0007908F1007808F2007B08F3
:10332E000A128A1502200A168A150B11833083128F
:10333E000313810077088A00760E8300FE0E7E0E40
:10334E000900831203132108A3002008A200031012
:10335E00A30CA20C2208A6002308A70083160313B1
:10336E004C0883120313A500831603134B08831214
:10337E000313A4002408831603134B0283120313B2
:10338E00A2002508031C250A831603134C02831280
:10339E000313A30027082302031DD72926082202A0
:1033AE00031CDA29DB29C129080083120313A000AC
:1033BE0083160313D5013E30E400C330E3008312BD
:1033CE00031320080319EC29ED29FD290A302002E8
:1033DE000318F229F329FD292008B23E8400831731
:1033EE00000883160313E200E101162A0A302006B4
:1033FE00031D022A032A102A831603173308831685
:10340E000313E20083160317280883160313E10043
:10341E00162A83160313E401E301E201E1010130F0
:10342E00D5000800003083120313AC000030AB004F
:10343E000030AA000030A900201C262A272A3E2A86
:10344E002408A907250803110318013E0319302A81
:10345E00AA07260803110318013E0319372AAB07E2
:10346E00270803110318013E03193E2AAC07013049
:10347E00A8000310A40DA50DA60DA70DA80B402A9C
:10348E0001300310A30CA20CA10CA00CFF3E031DD7
:10349E00482A2308220421042004031D572A582AEF
:1034AE00232A2C08A3002B08A2002A08A100290811
:1034BE00A000080083120313AD01AB1F672A682A10
:1034CE006F2AAA09AB09AA0A0319AB0A0130AD008B
:1034DE00A91F722A732A782AA809A909A80A03190A
:1034EE00A90A2808290403197D2A7E2AAB2A01304D
:1034FE00AC008A2A01300310A80DA90DFF3E031D52
:10350E00822A0130AC07A91F8D2A8E2A812A29080A
:10351E002B02031D942A28082A02031C972A982A94
:10352E009E2A2808AA022908031CAB03AB0201300D
:10353E000310A90CA80CFF3E031D9F2A0130AC02FC
:10354E00031DAA2AAB2A8E2A2D080319AF2AB02AE8
:10355E00B52AAA09AB09AA0A0319AB0A2B08A900B6
:10356E002A08A800080083120313A501A11FC02A70
:10357E00C12AC82AA009A109A00A0319A10A01306B
:10358E00A500A31FCB2ACC2AD32AA209A309A20ADB
:10359E000319A30A0130A506A601A70120082104DC
:1035AE000319DA2ADB2A102B0130A400E72A013096
:1035BE000310A00DA10DFF3E031DDF2A0130A4074D
:1035CE00A11FEA2AEB2ADE2A01300310A60DA70D51
:1035DE00FF3E031DEC2A21082302031DF82A2008B2
:1035EE002202031CFB2AFC2A032B2008A20221081C
:1035FE00031CA303A302261401300310A10CA00C7C
:10360E00FF3E031D042B0130A402031D0F2B102BB4
:10361E00EB2A25080319142B152B1A2BA609A7091B
:10362E00A60A0319A70A2708A1002608A000080069
:10363E00003083120313B9000030B8000030B70019
:10364E000030B60030082F042E042D040319302B41
:10365E00312B7C2B0130BA003F2B0130B50003100B
:10366E00AD0DAE0DAF0DB00DB50B362B0130BA074B
:10367E00B01F422B432B342B0130B5000310B60D77
:10368E00B70DB80DB90DB50B452B30083402031D1F
:10369E005A2B2F083302031D5A2B2E083202031DFC
:1036AE005A2B2D083102031C5D2B5E2B6D2B2D0822
:1036BE00B1022E08031C2E0FB2022F08031C2F0F6F
:1036CE00B3023008031C300FB4023614013003105D
:1036DE00B00CAF0CAE0CAD0CFF3E031D6E2B0130CB
:1036EE00BA02031D7B2B7C2B432B3908B000380804
:1036FE00AF003708AE003608AD0008008312031382
:10370E00C10065304102031C8D2B8E2B902B643033
:10371E00C1000030B0000030AF000030AE006430A9
:10372E00AD004108BB00BC01BD01BE01023003105B
:10373E00BB0DBC0DBD0DBE0DFF3E031D9E2B3E08E9
:10374E00A3003D08A2003C08A1003B08A000831680
:10375E0003131208013E83120313A4000030031852
:10376E000130A500A601A51BA6032608A7000A1670
:10377E008A1519220A168A15831203132308B40018
:10378E002208B3002108B2002008B1000A168A15DB
:10379E001F230A168A15831203132E08C0002D0844
:1037AE00BF004008BC003F08BB000310BC0CBB0CA4
:1037BE000310BC0CBB0C3B0895003F080339BB0043
:1037CE00BB0E17083B06CF393B06970008000310C7
:1037DE0083120313620D630DE9006908031DF82BB4
:1037EE00F92B022C0030E3000030E2000030E10043
:1037FE000030E000632C6008E4006108E500620818
:10380E00E6006308E7001F300310E70CE60CE50C3A
:10381E00E40CFF3E031D0B2C6408E800E217FF309A
:10382E00E005FF30E105FF30E2050030E30596309C
:10383E00E902E91F232C242C3C2C6908803A973E80
:10384E0003182A2C2B2C2C2CF92B01300310E30CF3
:10385E00E20CE10CE00CFF3E031D2D2C0130E907BC
:10386E00031D3A2C3B2C2C2C532C20306902031CAC
:10387E00412C422C4E2CF92B0130E4000310E00DAC
:10388E00E10DE20DE30DE40B452C0130E902690870
:10389E00031D522C532C432C68080319572C582CFB
:1038AE00632CE009E109E209E309E00A0319E10AE0
:1038BE000319E20A0319E30A080083120313EE0048
:1038CE000A30E6006E080A168A1540260A168A1570
:1038DE0083120313690883160313E0008312031384
:1038EE00680883160313DF00831203136708831619
:1038FE000313DE0083120313660883160313DD0021
:10390E003D3083120313CF003430CE003930CD005A
:10391E005830CC003E30B5004F30B400BD30B3004F
:10392E002730B20083160313600883120313B90005
:10393E00831603135F0883120313B8008316031351
:10394E005E0883120313B700831603135D088312F8
:10395E000313B6000A128A1148200A168A1583121A
:10396E0003133508D3003408D2003308D1003208CF
:10397E00D0000A168A11B0250A168A15831203136F
:10398E004F0883160313CA00831203134E088316BF
:10399E000313C900831203134D0883160313C800C3
:1039AE00831203134C0883160313C7004A08A90099
:1039BE004908A8004808A7004708A60008000030DC
:1039CE00831203136005E80000306105E9008030C2
:1039DE006205EA007F306305EB006B086A04690438
:1039EE006804031DFB2CFC2C042D0030E30000307A
:1039FE00E2000030E1000030E00000306405E80035
:103A0E0000306505E90080306605EA007F30670505
:103A1E00EB006B086A0469046804031D172D182D4A
:103A2E00202D0030E7000030E6000030E5000030C9
:103A3E00E400E31F232D242D482D0030E800003034
:103A4E00E9000030EA008030EB006008E80261080F
:103A5E00031C610F332D342DE9026208031C620F23
:103A6E00392D3A2DEA026308031C630F3F2D402DBA
:103A7E00EB026B08E3006A08E2006908E1006808DF
:103A8E00E000E71F4B2D4C2D702D0030E80000306C
:103A9E00E9000030EA008030EB006408E8026508B7
:103AAE00031C650F5B2D5C2DE9026608031C660F77
:103ABE00612D622DEA026708031C670F672D682DC2
:103ACE00EB026B08E7006A08E6006908E500680883
:103ADE00E4008030E3068030E70667086302031DCA
:103AEE00822D66086202031D822D65086102031D88
:103AFE00822D640860020318852D862D882D0310F3
:103B0E00892D0314080083120313AC002C0803192B
:103B1E00912D922DA62DA71F952D962DA62D2409FC
:103B2E00AE002509AF002609B0002709B100AE0A84
:103B3E000319AF0A0319B00A0319B10AAE2D2708EB
:103B4E00B1002608B0002508AF002408AE002708F3
:103B5E00260425042404031DB52DB62DBF2D0030DB
:103B6E00A7000030A6000030A5000030A4003F2EB4
:103B7E009630AD00CD2D0130AD0701300310B10CE4
:103B8E00B00CAF0CAE0CFF3E031DC52DFE30310543
:103B9E00031DD22DD32DC22DED2D0130AD070130D9
:103BAE00AE07003003180130AF07003003180130A4
:103BBE00B007003003180130B10701300310B10C0B
:103BCE00B00CAF0CAE0CFF3E031DE52DFF303105E2
:103BDE00031DF22DF32DD42DFF2D0130AD0201303A
:103BEE00A8000310AE0DAF0DB00DB10DA80BF82D42
:103BFE00B01B022E032E092E02302D020318082EA2
:103C0E00092EF42D2D180C2E0D2E152EFF30AE056F
:103C1E00FF30AF057F30B005FF30B1050310AD0C9E
:103C2E002D08A800A901AA01AB0118300310A80D98
:103C3E00A90DAA0DAB0DFF3E031D1D2E2808AE04C7
:103C4E002908AF042A08B0042B08B1042C08031964
:103C5E00312E322E372EA71F352E362E372EB11778
:103C6E003108A7003008A6002F08A5002E08A400D2
:103C7E00080083160313A0000030A5000030A40036
:103C8E000030A3000030A200A101AA2E20080A16BF
:103C9E008A15F9200A168A15831203132008EA00E2
:103CAE002108EB00EC01ED016D08A7006C08A600E1
:103CBE006B08A5006A08A40000300A168A158A252A
:103CCE000A168A15831203132708CF002608CE0082
:103CDE002508CD002408CC00831603132508831273
:103CEE000313D30083160313240883120313D20085
:103CFE0083160313230883120313D10083160313B1
:103D0E00220883120313D0000A168A11B0250A1650
:103D1E008A15831203134F0883160313A50083120B
:103D2E0003134E0883160313A400831203134D08C6
:103D3E0083160313A300831203134C088316031375
:103D4E00A2000130A1078312031366088316031322
:103D5E002102031CB32EB42E4D2E831203136608BC
:103D6E00EA00EB01EC01ED016D08A7006C08A6005E
:103D7E006B08A5006A08A40001300A168A158A2568
:103D8E000A168A15831203132708CF002608CE00C1
:103D9E002508CD002408CC008316031325088312B2
:103DAE000313D30083160313240883120313D200C4
:103DBE0083160313230883120313D10083160313F0
:103DCE00220883120313D0000A168A11E6230A165C
:103DDE008A15831203134F08E9004E08E8004D08B8
:103DEE00E7004C08E6000800831603135008031D75
:103DFE00012F022FA32F0A3083120313A0000030CD
:103E0E00A1000A168A15A8210A168A158312031311
:103E1E00871D122F132FA32F013083160313D000EB
:103E2E005C08031D1B2F1C2F1F2F0230DC00A32F3D
:103E3E0002305C06031D242F252F282F0330DC00B3
:103E4E00A32F03305C06031D2D2F2E2FA32F5B08EF
:103E5E00DA0059080319342F352F9F2F0B305902D2
:103E6E0003183A2F3B2F9F2F5A08BC000230031025
:103E7E00BC0DFF3E031D3E2F03103C0D903E8400F3
:103E8E008317000883120313B200840A0008B300DC
:103E9E00840A0008B400840A0008B50083160313D0
:103EAE005908BD00BE01BF01C001400883120313B3
:103EBE00A700831603133F0883120313A60083166D
:103ECE0003133E0883120313A500831603133D0844
:103EDE0083120313A40001300A168A158A250A16C6
:103EEE008A15831203132708B9002608B80025087F
:103EFE00B7002408B6000A128A1148200A168A153D
:103F0E0083120313350883160313E8008312031379
:103F1E00340883160313E700831203133308831642
:103F2E000313E60083120313320883160313E5000E
:103F3E000430DC00C201D80183128719A72FA82FE5
:103F4E00AB2F83160313D0018316031341080319F5
:103F5E00B12FB42F0A128A11232E4130E9000030FE
:103F6E00EA0069080A168A1585230A168A1583122D
:103F7E000313851AC32FC42FFA2F7630831603131B
:103F8E00E400E330E3003C30E200E1010130D50013
:103F9E000A168A154F200A168A1532308312031319
:103FAE00A0000030A1000A168A15A8210A168A154B
:103FBE000A168A155C200A168A1519308312031305
:103FCE00A0000030A1000A168A15A8210A168A152B
:103FDE000A168A154F200A168A1583160313C10175
:103FEE000A128A1547280A168A1566200A168A1595
:023FFE00F72F9B
:04400E00F423FF3E5A
:00000001FF
