:060000000A128A110C280F
:10000800FE00030EF6000A08F7000A168A11A42952
:100018000A128A110F288317CD30FD001030FE0018
:10002800F430FF00B13084000A128A11F1270A1255
:100038008A113C30FD000830FE000C30FF00103003
:1000480084000A128A11F1270A128A11903084005A
:10005800B1300A168A11AF200A128A1183160313C7
:10006800EB01EC01ED01F801F901FA01FB01FC01DA
:10007800FD0183010A128A1141280A168A11D92022
:100088000A128A110A168A11C1200A128A110A163E
:100098008A1110210A128A116E3083160317B000D4
:1000A8005730AF006C30AE00AD010130A90003300D
:1000B80083160313E3000830E2007630E100E10B19
:1000C8006328E20B6328E30B6328000001308316E2
:1000D8000313E400E501EA0183120313071D7528E1
:1000E8007628CD28831603172208031D7C287D282F
:1000F800CD28343083160313E200F130E100E10B20
:100108008328E20B832883120313071D8C288D286C
:10011800CD28013083160317A200831603136D0838
:10012800031D972898289B280230ED00CD2802301F
:100138006D06031DA028A128A4280330ED00CD28B2
:1001480003306D06031DA928AA28CD286C08FD00D8
:100158007D08E10002300310E10DFF3E031DAF28CA
:100168000310610D103E84008317000883160317DF
:10017800C500840A0008C600840A0008C700840A6B
:100188000008C800043083160313ED00EA01E501F6
:10019800FC01831203130719D228D328D628831603
:1001A8000317A2018316031364080319DC28DD284A
:1001B8001F29053083160317C9000030CA000A1228
:1001C8008A1501200A128A1183120313851AED2851
:1001D800EE2870280A168A11AA200A128A110330FA
:1001E80083160313E3000830E2007630E100E10BE8
:1001F800FB28E20BFB28E30BFB2800000A168A11F8
:10020800B7200A128A11033083160313E30008305B
:10021800E2007630E100E10B0F29E20B0F29E30B36
:100228000F2900000A168A11AA200A128A118316B9
:100238000313E40170286D08031D23292429A72925
:1002480002300A168A116C250A128A1183160313C2
:100258003D08831603179B00831603133C08831677
:1002680003179A00831603133B0883160317990094
:10027800831603133A088316031798001B0883167E
:100288000313CE00831603171A0883160313CD0031
:1002980083160317190883160313CC008316031754
:1002A800180883160313CB004030D2000030D10069
:1002B8000030D0000030CF000A168A1148230A12F5
:1002C8008A110318682969299C297A08031D6D2950
:1002D8006E2979291E3083160317B000F830AF0055
:1002E8003E30AE00C330AD0083292C30831603178F
:1002F800B0008730AF003E30AE00C330AD007A08A2
:1003080003198729892901308A290030FA00013028
:10031800A900063083160313E3001330E200AD3062
:10032800E100E10B9529E20B9529E30B9529A72913
:10033800763083160317B000E330AF003C30AE00D0
:10034800AD010130A9000230831603136D06031DA9
:10035800AE29AF29F42900300A168A11A2240A12FC
:100368008A11831603133D08831603179F0083160B
:1003780003133C08831603179E00831603133B08D8
:10038800831603179D00831603133A088316031771
:100398009C001F0883160313DA00831603171E0830
:1003A80083160313D900831603171D088316031336
:1003B800D800831603171C0883160313D700B03020
:1003C800DB00AF30DC00AE30DD00AD30DE000A12FD
:1003D8008A157A230A128A11013083160317A90095
:1003E800033003136D06031DFA29FB29A22A7B0893
:1003F800031DFF29002A212A83120313071C052A3B
:10040800062A212A343083160313E200F130E10072
:10041800E10B0C2AE20B0C2A83120313071C152A82
:10042800162A212A013083160313EC0703306C02C5
:10043800031C1F2A202A212AEC01003083120718E6
:100448000130FB00831603172B08031D2C2A2D2AC5
:100458004F2A83120313871C322A332A4F2A343037
:1004680083160313E200F130E100E10B392AE20BB5
:10047800392A83120313871C422A432A4F2A8316D8
:1004880003136C08031D492A4A2A4D2A0230EC003E
:100498004F2A0130EC020030831203138718013011
:1004A80083160317AB00831603136C08E1000230B0
:1004B8000310E10DFF3E031D5C2A0310610D143E7D
:1004C80084008317000883160317B00083160313EC
:1004D8006C08E10002300310E10DFF3E031D6F2A96
:1004E8000310610D153E8400000883160317AF0042
:1004F800831603136C08E10002300310E10DFF3E80
:10050800031D812A0310610D163E8400000883161E
:100518000317AE00831603136C08E10002300310C2
:10052800E10DFF3E031D932A0310610D173E840061
:10053800000883160317AD000130A90003136A03EE
:10054800031DA72AA82AAE2A0A168A11AA200A1267
:100558008A11702804306D06031DB32AB42A702846
:10056800033083160317C9000030CA0002300A1688
:100578008A116C250A128A11831603133D08831603
:1005880003179B00831603133C08831603179A006E
:10059800831603133B088316031799008316031366
:1005A8003A08831603179800403083160313CE00C9
:1005B8004030CD000030CC000030CB0002300A16AD
:1005C8008A116C250A128A11831603133D08D2007A
:1005D8003C08D1003B08D0003A08CF000A168A111F
:1005E80048230A128A110318FA2AFB2A032B8312BA
:1005F80003130516013083160317A1000A2B831273
:100608000313051283160317A101A82A1B088316D2
:100618000313CE00831603171A0883160313CD009D
:1006280083160317190883160313CC0083160317C0
:10063800180883160313CB0083160317480883167C
:100648000313D20083160317470883160313D10038
:1006580083160317460883160313D000831603175F
:10066800450883160313CF000A168A1148230A1275
:100678008A11031C402B412B4A2B0A168A11AA20E7
:100688000A128A11013083160313EA00831603172E
:100698004B03031D502B512BFB2B83120313851A7D
:1006A800562B572BFB2B343083160313E200F13003
:1006B800E100E10B5D2BE20B5D2B83120313851A1E
:1006C800662B672BFB2B7C08031D6B2B6C2BBA2B23
:1006D800831603136B03031D722B732BBA2B0A1695
:1006E8008A11AA200A128A11023083160313E30022
:1006F8000430E200B930E100E10B802BE20B802BE3
:10070800E30B802B872B0A128A1501200A128A1103
:10071800033083160313E3000830E2007630E1006B
:10072800E10B942BE20B942BE30B942B00000A169D
:100738008A11AA200A128A11063083160313E300CD
:100748001330E200AD30E100E10BA82BE20BA82B3F
:10075800E30BA82B0A128A1501200A128A1101300C
:10076800FC00013083160313E500FB2B7C03031DFB
:10077800BE2BBF2BFB2B0230831603136B06031D06
:10078800C62BC72BFB2B0A168A11AA200A128A111C
:10079800023083160313E3000430E200B930E100AD
:1007A800E10BD42BE20BD42BE30BD42BDB2B0A1657
:1007B8008A11B7200A128A11033083160313E30043
:1007C8000830E2007630E100E10BE82BE20BE82B81
:1007D800E30BE82B00000A168A11AA200A128A11D4
:1007E8000230FC00013083160313EA00E5010030F3
:1007F80083120313851A013083160317CB00831263
:100808000313851E082C092C0D2D83160313650868
:10081800031D0F2C102C0D2D6A08031D142C152CEC
:100828000D2D83120313051E1A2C1B2C0D2D0030C1
:100838000A168A11A2240A128A11831603133D0884
:10084800831603179700831603133C0883160317B0
:100858009600831603133B08831603179500831627
:1008680003133A0883160317940001300A168A11F5
:10087800A2240A128A11831603133D08831603174C
:100888009300831603133C088316031792008316FC
:1008980003133B08831603179100831603133A08C2
:1008A800831603179000130883120313CF008316CF
:1008B8000317120883120313CE00831603171108B7
:1008C80083120313CD008316031710088312031332
:1008D800CC0083160317170883120313D30083165B
:1008E8000317160883120313D2008316031715087B
:1008F80083120313D10083160317140883120313FA
:10090800D0000A168A112F210A128A1183120313A2
:100918004F0883160313E900831203134E08831646
:100928000313E800831203134D0883160313E7002B
:10093800831203134C0883160313E6006908CE00DC
:100948006808CD006708CC006608CB003F30D200AD
:100958004C30D100CC30D000CD30CF000A168A11EF
:1009680048230A128A110318BA2CBB2CE02CBF307A
:1009780083160313CE004C30CD00CC30CC00CD30E4
:10098800CB006908D2006808D1006708D000660863
:10099800CF000A168A1148230A128A110318D52C87
:1009A800D62CE02C0A168A11AA200A128A110130C4
:1009B80083160317A0000D2D831603172008031DA7
:1009C800E62CE72C0D2D003083160313CE000030E3
:1009D800CD000030CC000030CB006908D200680898
:1009E800D1006708D0006608CF000A168A1148238C
:1009F8000A128A110318012D022D082D0A168A11D0
:100A0800B7200A128A110D2D0A128A1501200A121E
:100A18008A1102300A168A116C250A128A11831665
:100A280003133D08831603179B00831603133C0822
:100A3800831603179A00831603133B0883160317BC
:100A48009900831603133A088316031798001B08A6
:100A580083160313DA00831603171A088316031381
:100A6800D90083160317190883160313D8008316B1
:100A78000317180883160313D700B030DB00AF3014
:100A8800DC00AE30DD00AD30DE000A128A157A23B4
:100A98000A128A11013083160317A900831603135B
:100AA8006A03031D582D592D7028A82A0A128A1185
:100AB8000C28831203132308B0008030B0052308E4
:100AC800A8002807B200A21F6A2D6B2D6C2D3214C6
:100AD80032080319702D712D812D320A031D752DD1
:100AE800762D7E2D0030A3000030A2000030A1003A
:100AF8000030A000A217A301892D0030A300003008
:100B0800A2000030A1000030A0002708B10080300A
:100B1800B105310830060319922D932D942D301705
:100B28002708A8002807B100A61F9B2D9C2D9D2DE6
:100B3800311431080319A12DA22DB22D310A031D3C
:100B4800A62DA72DAF2D0030A7000030A60000303D
:100B5800A5000030A400A617A701BA2D0030A700F1
:100B68000030A6000030A5000030A4003208310291
:100B78000318BF2DC02DE42D301FC32DC42DC62D45
:100B88008030B0063208B3003108B2003308B10033
:100B98002008B3002408A0003308A4002108B300EB
:100BA8002508A1003308A5002208B3002608A200E2
:100BB8003308A6002308B3002708A3003308A700BA
:100BC800B3013108A800A9012908AB00320828029E
:100BD800AA00031CAB032B08803AFF0080307F0279
:100BE800031DF82D1A302A02031CFB2DFC2D312E73
:100BF800831203132308220421042004031D052E55
:100C0800072E0130082E0030B3000030A30000305A
:100C1800A2000030A1000030A0003108B200392E37
:100C2800331C172E182E1F2E3308A8000310280C6B
:100C38000138B300212E0310B30C201C242E252EBE
:100C4800262EB3170130A800230DA30CA20CA10C6B
:100C5800A00CA80B282E0130B20783120313310809
:100C68003202031C382E392E142E301B3C2E3D2EFA
:100C7800842E3208031D412E422E4B2E0030A30035
:100C88000030A2000030A1000030A000AC2F2408E2
:100C9800A007250803110318013E0319542EA107C4
:100CA800260803110318013E03195B2EA207270823
:100CB80003110318013E0319622EA307231C652E96
:100CC800662E382F331C692E6A2E712E3308A80021
:100CD8000310280C0138B300732E0310B30C201C2A
:100CE800762E772E782EB3170130A800230DA30C8B
:100CF800A20CA10CA00CA80B7A2E0130B207382F39
:100D08002308803AFF002708803A7F02031D962EA9
:100D180026082202031D962E25082102031D962E61
:100D2800240820020318992E9A2EF12EFF30A800CD
:100D3800FF30A900FF30AA00FF30AB002408AC0048
:100D48002508AD002608AE002708AF002008AC0231
:100D58002108031C210FB12EB22EAD022208031C5C
:100D6800220FB72EB82EAE022308031C230FBD2E68
:100D7800BE2EAF022C08A8072D0803182D0FC52E6C
:100D8800C62EA9072E0803182E0FCB2ECC2EAA0785
:100D98002F0803182F0AAB072B08A3002A08A20064
:100DA8002908A1002808A0008030B0063303FF3AC4
:100DB800B3003308031DE12EE22EFF2E0130A007F9
:100DC800003003180130A107003003180130A207D2
:100DD800003003180130A307FF2E2408A0022508BD
:100DE800031C250FA1022608031C260FA2022708B0
:100DF800031C270FA3022308220421042004031D37
:100E0800062F072F342F3308031D0B2F0C2F342FD9
:100E18000030A3000030A2000030A1000030A00084
:100E2800AC2F0130A8000310A00DA10DA20DA30D39
:100E3800A80B172FB31F212F222F232F2014331C69
:100E4800262F272F2B2F0314330DB3002D2F03101C
:100E5800B30D32080319312F322F342F0130B2026B
:100E6800A21F372F382F152FB101B31F3C2F3D2F4D
:100E78004B2F33087F390319422F432F462F013058
:100E8800B1004B2F201C492F4A2F4B2F432F3108DD
:100E980003194F2F502F822F0130A007003003185D
:100EA8000130A107003003180130A20700300318F1
:100EB8000130A307231C612F622F822F2008A8006E
:100EC8002108A9002208AA002308AB000130AC00C1
:100ED8002B0DAB0CAA0CA90CA80CAC0B6C2F2B0877
:100EE800A3002A08A2002908A1002808A000320AA5
:100EF80003197F2F802F822F0130B207320A03197E
:100F0800862F872F8C2F3208031D8B2F8C2F9A2F1B
:100F18000030A3000030A2000030A1000030A00083
:100F28003208031D982F992F9A2FB001321C9D2F3C
:100F38009E2FA02FA217A22F7F30A2053208A8004B
:100F48000310280CA300B01FAA2FAB2FAC2FA31798
:100F58000800F50075088312031386000712033092
:100F6800F4009730F300F30BB72FF40BB72FBC2F17
:100F78008312031307167008860087130330F400E2
:100F88009730F300F30BC62FF40BC62FCB2F831229
:100F9800031387177108860007130330F40097308E
:100FA800F300F30BD52FF40BD52FDA2F831203138D
:100FB80007177208860087120330F4009730F30091
:100FC800F30BE42FF40BE42FE92F83120313871696
:100FD80008007E088A007F0882000A128A11ED271D
:100FE8000A128A118000840A04087D060319003455
:080FF800FF0A0319FE0AF12FA4
:101002008312031305138517023083160313EB00B3
:101012000130FC0008000034003468344134AE343E
:1010220081342C34F5340034003478344134FA34C9
:101032006C3401349E3400340034843441343C3402
:1010420081343E3457347734003414340034B334AA
:101052000034B6340034D4340034E6340034C734B7
:10106200003434340034F7340034F434003483125E
:1010720003135708E1008030E1055708DC005C07E4
:10108200E700D61F45284628472867146708031932
:101092004B284C285B28670A031D502851285928E1
:1010A2000030D7000030D6000030D5000030D40028
:1010B200D61763280030D7000030D6000030D500A4
:1010C2000030D4005B088039E1065B08DC005C0775
:1010D200E600DA1F6D286E286F2866146608031969
:1010E200732874288328660A031D782879288128A2
:1010F2000030DB000030DA000030D9000030D800C8
:10110200DA178B280030DB000030DA000030D9001B
:101112000030D800660803198F28902895286708A0
:10112200031D942895289E280030D7000030D60051
:101132000030D5000030D400792B5408A0005A08A2
:101142000A168A117B210A128A15831203132108B7
:10115200ED002008EC006C08DC00DD01DE01DF019F
:101162005F08E5005E08E4005D08E3005C08E20059
:101172006D08DC00DD01DE01DF015F08EB005E08C7
:10118200EA005D08E9005C08E8005508A00059087B
:101192000A168A117B210A128A1583120313210867
:1011A200ED002008EC006C08DC00DD01DE01DF014F
:1011B2005C08E2075D0803110318013E0319E228E7
:1011C200E3075E0803110318013E0319E928E40747
:1011D2005F0803110318013E0319F028E5076D08A3
:1011E200DC00DD01DE01DF015C08E8075D080311B8
:1011F2000318013E0319FE28E9075E0803110318CC
:10120200013E03190529EA075F0803110318013E8D
:1012120003190C29EB075608A00058080A168A1170
:101222007B210A128A15831203132108ED0020087C
:10123200EC006C08DC00DD01DE01DF015C08E20786
:101242005D0803110318013E03192829E3075E080C
:1012520003110318013E03192F29E4075F08031144
:101262000318013E03193629E5076D08DC00DD018C
:10127200DE01DF015C08E8075D0803110318013E87
:1012820003194429E9075E0803110318013E0319F3
:101292004B29EA075F0803110318013E031952297B
:1012A200EB070830DC000310E20DE30DE40DE50D61
:1012B200DC0B54295508A00058080A168A117B2114
:1012C2000A128A15831203132108ED002008EC008C
:1012D2006C08DC006D08DD00DE01DF015C08E2075E
:1012E2005D0803110318013E03197829E3075E081C
:1012F20003110318013E03197F29E4075F08031154
:101302000318013E03198629E5075408A00059086D
:101312000A168A117B210A128A15831203132108E5
:10132200ED002008EC006C08DC006D08DD00DE0139
:10133200DF015C08E2075D0803110318013E03198F
:10134200A329E3075E0803110318013E0319AA2922
:10135200E4075F0803110318013E0319B129E507E9
:101362000830DC000310E20DE30DE40DE50DDC0BAB
:10137200B3295408A00058080A168A117B210A12C0
:101382008A15831203132108ED002008EC006C0873
:10139200DC006D08DD00DE01DF015C08E2075D08AC
:1013A20003110318013E0319D729E3075E0803114D
:1013B2000318013E0319DE29E4075F08031103182D
:1013C200013E0319E529E5075508A0005A080A1647
:1013D2008A117B210A128A15831203132108ED0058
:1013E2002008EC006C08DC006D08DD00DE01DF0186
:1013F2005C08E8075D0803110318013E0319022A7D
:10140200E9075E0803110318013E0319092AEA07D6
:101412005F0803110318013E0319102AEB0756084F
:10142200A00059080A168A117B210A128A15831212
:1014320003132108ED002008EC006C08DC006D08A5
:10144200DD00DE01DF015C08E8075D080311031817
:10145200013E03192D2AE9075E0803110318013E14
:101462000319342AEA075F0803110318013E03191E
:101472003B2AEB075608A0005A080A168A117B215C
:101482000A128A15831203132108ED002008EC00CA
:101492006C08DC006D08DD00DE01DF01083003109E
:1014A200DC0DDD0DDE0DDF0DFF3E031D502A5C0855
:1014B200E8075D0803110318013E0319612AE907D1
:1014C2005E0803110318013E0319682AEA075F0840
:1014D20003110318013E03196F2AEB076208DC00AF
:1014E2006308DD006408DE006508DF0018300310C1
:1014F200DF0CDE0CDD0CDC0CFF3E031D782A5C08E1
:10150200E8075D0803110318013E0319892AE90758
:101512005E0803110318013E0319902AEA075F08C7
:1015220003110318013E0319972AEB070830DC0068
:101532000310E20DE30DE40DE50DDC0B992A6708BB
:101542006607DC00DD01DD0D5C08823EEC005D0813
:101552000318013EFF3EED00CB2A0130DC000310F0
:10156200E80DE90DEA0DEB0DDC0BB02AE51FBA2AF6
:10157200BB2ABC2A68140130DC000310E20DE30D23
:10158200E40DE50DDC0BBE2AFF30EC070318ED0A73
:10159200FF30ED07EA1FCE2ACF2AAE2AE601E51F69
:1015A200D32AD42AF02AFF306205DC00FF3063051B
:1015B200DD00FF306405DE007F306505DF005F0877
:1015C2005E045D045C040319E72AE82AEB2A013071
:1015D200E600F02A681CEE2AEF2AF02AE82A6608BA
:1015E2000319F42AF52A262B0130E80700300318E4
:1015F2000130E907003003180130EA070030031810
:101602000130EB076B1C062B072B262B6808DC002E
:101612006908DD006A08DE006B08DF000130E000C7
:101622005F0DDF0CDE0CDD0CDC0CE00B112B5F0818
:10163200EB005E08EA005D08E9005C08E8000130A2
:10164200EC070318ED0A0030ED076D08803AFF0041
:1016520080307F02031D2F2BFF306C02031C322BC4
:10166200332B3E2B7F3083120313EB008030EA00D2
:101672000030E9000030E8006F2B831203136D087D
:10168200803AFF0080307F02031D492B01306C023B
:1016920003184C2B4D2B592B003083120313EB00F4
:1016A2000030EA000030E9000030E800E1016F2B71
:1016B200831203136C08E700FF30E805FF30E905E9
:1016C2007F30EA050030EB05671C682B692B6A2B1B
:1016D200EA176708DC0003105C0CEB006108EB04FE
:1016E2006B08D7006A08D6006908D5006808D400DC
:1016F2000800831603135A08CE005908CD00580873
:10170200CC005708CB004130D2002030D10000304D
:10171200D0000030CF000A168A1148230A128A1517
:101722000318942B952B912D0A3083160313A000D6
:101732000030A1005A0883120313B7008316031363
:10174200590883120313B600831603135808831231
:101752000313B50083160313570883120313B4004F
:101762000A168A11D2220A128A1583120313350825
:1017720083160313A300831203133408831603137F
:10178200A2000A168A1164220A128A15831603130A
:10179200210883160317CE0083160313200883162D
:1017A2000317CD00831603135A0883120313D300C1
:1017B20083160313590883120313D20083160313EB
:1017C200580883120313D100831603135708831298
:1017D2000313D000831603135A0883120313B700AE
:1017E20083160313590883120313B60083160313D7
:1017F200580883120313B500831603135708831284
:101802000313B4000A168A11D2220A128A1583120D
:1018120003133408BE003508BF000030BF1BFF3081
:10182200C000C10001300A168A11EC230A128A157F
:10183200831203134108CF004008CE003F08CD00B9
:101842003E08CC000A168A112F210A128A15831229
:1018520003134F08DB004E08DA004D08D9004C088C
:10186200D8004130D7002030D6000030D5000030FB
:10187200D4000A128A1538200A128A158312031319
:10188200570883160317DE008312031356088316C4
:101892000317DD0083120313550883160317DC00B8
:1018A20083120313540883160317DB000A308316CE
:1018B2000313A0000030A100831603175E088312F1
:1018C2000313B700831603175D0883120313B600D0
:1018D200831603175C0883120313B50083160317DC
:1018E2005B0883120313B4000A168A11D2220A1269
:1018F2008A1583120313350883160313A300831278
:101902000313340883160313A2000A168A116422F1
:101912000A128A1583160313210883160317D000AF
:1019220083160313200883160317CF0083160313AD
:101932005A0883120313D300831603135908831220
:101942000313D20083160313580883120313D10022
:1019520083160313570883120313D000831603134D
:101962005A0883120313B70083160313590883120C
:101972000313B60083160313580883120313B5002A
:1019820083160313570883120313B4000A168A112D
:10199200D2220A128A15831203133408BE003508B4
:1019A200BF000030BF1BFF30C000C10001300A166B
:1019B2008A11EC230A128A15831203134108CF00FD
:1019C2004008CE003F08CD003E08CC000A168A111E
:1019D2002F210A128A15831203134F08DB004E08C7
:1019E200DA004D08D9004C08D8004230D700C83080
:1019F200D6000030D5000030D4000A128A153820F3
:101A02000A128A1583120313570883160317DE007E
:101A120083120313560883160317DD008312031380
:101A2200550883160317DC00831203135408831628
:101A32000317DB000A3083160313A0000030A10055
:101A4200831603175E0883120313B7008316031766
:101A52005D0883120313B600831603175C08831212
:101A62000313B500831603175B0883120313B40034
:101A72000A168A11D2220A128A1583120313350812
:101A820083160313A300831203133408831603136C
:101A9200A2000A168A1164220A128A1583160313F7
:101AA200210883160317D200831603132008831616
:101AB2000317D100831603135B08840083160317F0
:101AC2003108831780004D0883160313DF005F0778
:101AD200283E840000080838E0005C0884006008A2
:101AE2008000831603174F0883160313DF005F0776
:101AF200B13E84000008E0005D08840060088000B8
:101B020083160317510883160313DF005F07283E6D
:101B120084000008E0005E08840060088000FF2F57
:101B2200831603135A08CE005908CD005808CC007A
:101B32005708CB004130D2002030D1000030D00015
:101B42000030CF000A168A1148230A128A15031C94
:101B5200AB2DAC2DFF2F0A3083160313A0000030EB
:101B6200A1000A3083120313BE000030BF008316A7
:101B720003135A0883120313B70083160313590879
:101B820083120313B6008316031358088312031338
:101B9200B50083160313570883120313B4000A1601
:101BA2008A11D2220A128A15831203133508C10040
:101BB2003408C0000A168A11FF210A128A158312FC
:101BC20003133F0883160313A300831203133E0873
:101BD20083160313A2000A168A1164220A128A15B6
:101BE20083160313210883160317D40083160313E5
:101BF200200883160317D3000A3083160313A000AC
:101C02000030A1005A0883120313B700831603138E
:101C1200590883120313B60083160313580883125C
:101C22000313B50083160313570883120313B4007A
:101C32000A168A11D2220A128A1583120313350850
:101C420083160313A30083120313340883160313AA
:101C5200A2000A168A1164220A128A158316031335
:101C6200210883160317D600831603132008831650
:101C72000317D500831603135A0883120313D300E4
:101C820083160313590883120313D2008316031316
:101C9200580883120313D1008316031357088312C3
:101CA2000313D000831603135A0883120313B700D9
:101CB20083160313590883120313B6008316031302
:101CC200580883120313B5008316031357088312AF
:101CD2000313B4000A168A11D2220A128A15831239
:101CE20003133408BE003508BF000030BF1BFF30AD
:101CF200C000C10001300A168A11EC230A128A15AB
:101D0200831203134108CF004008CE003F08CD00E4
:101D12003E08CC000A168A112F210A128A15831254
:101D220003134F08DB004E08DA004D08D9004C08B7
:101D3200D8004130D7002030D6000030D500003026
:101D4200D4000A128A1538200A128A158312031344
:101D5200570883160317DE008312031356088316EF
:101D62000317DD0083120313550883160317DC00E3
:101D720083120313540883160317DB000A308316F9
:101D82000313A0000030A100831603175E0883121C
:101D92000313B700831603175D0883120313B600FB
:101DA200831603175C0883120313B5008316031707
:101DB2005B0883120313B4000A168A11D2220A1294
:101DC2008A1583120313350883160313A3008312A3
:101DD2000313340883160313A2000A168A1164221D
:101DE2000A128A1583160313210883160317D800D3
:101DF20083160313200883160317D70083160313D1
:101E02005A0883120313D30083160313590883124B
:101E12000313D20083160313580883120313D1004D
:101E220083160313570883120313D0008316031378
:101E32005A0883120313B700831603135908831237
:101E42000313B60083160313580883120313B50055
:101E520083160313570883120313B4000A168A1158
:101E6200D2220A128A15831203133408BE003508DF
:101E7200BF000030BF1BFF30C000C10001300A1696
:101E82008A11EC230A128A15831203134108CF0028
:101E92004008CE003F08CD003E08CC000A168A1149
:101EA2002F210A128A15831203134F08DB004E08F2
:101EB200DA004D08D9004C08D8004230D700C830AB
:101EC200D6000030D5000030D4000A128A1538201E
:101ED2000A128A1583120313570883160317DE00AA
:101EE20083120313560883160317DD0083120313AC
:101EF200550883160317DC00831203135408831654
:101F02000317DB000A3083160313A0000030A10080
:101F1200831603175E0883120313B7008316031791
:101F22005D0883120313B600831603175C0883123D
:101F32000313B500831603175B0883120313B4005F
:101F42000A168A11D2220A128A158312031335083D
:101F520083160313A3008312031334088316031397
:101F6200A2000A168A1164220A128A158316031322
:101F7200210883160317DA00831603132008831639
:101F82000317D900530883160313DF005F07B13E1E
:101F9200840083170008E0005B088400600880006A
:101FA20083160317550883160313DF005F07283EC5
:101FB200840000080838E0005C08840060088000A3
:101FC20083160317570883160313DF005F07B13E1A
:101FD20084000008E0005D08840060088000831629
:101FE2000317590883160313DF005F07283E840096
:0E1FF2000008E0005E0884006008800008001F
:102154008312031305138513080064008001840AA5
:102164000406031900340406B02883120313051768
:102174008513013083160313EB00FC0108000130C2
:10218400831203139000F0308F0060308E000C1027
:10219400831603130C140B178B1704308100833040
:1021A4008312031381000B118B168B1708008316FF
:1021B4000313871105138513851605120712871259
:1021C4000713871307148714071586018312031353
:1021D4000716871707178716051385138711051226
:1021E40086010800EE34003482340034DC340034D8
:1021F400D6340034B2340034763400343E340034FF
:10220400C2340034FE340034F23400340034003478
:102214006834413405340034013401348316031323
:1022240005148514051507308316031788008901E2
:10223400831603139F17831203131F083F39803833
:102244009F001F140D3083120313A100FB30A00064
:10225400A00B2A29A10B2A2908008030831203131A
:10226400CF065308A3005208A2005108A100500849
:10227400A0004F08A7004E08A6004D08A5004C0872
:10228400A4000A128A115D250A168A118312031307
:102294002308CF002208CE002108CD002008CC005E
:1022A400080083120313A300C3309F052308A20070
:1022B40001300310A20DFF3E031D5B290310220D04
:1022C4009F04053083120313A200A20B67296A2915
:1022D400831203131F149F149F18712972296E29E6
:1022E4001E08A100831603131E0883120313A00003
:1022F400080083120313A800A401A5012008A2006A
:10230400A3012208A6002308A700281C8A298B29D8
:1023140091292608A4070318A50A2708A507013050
:102324000310A60DA70DFF3E031D92290310A80C50
:102334002808031D9E299F2987292508A100240810
:10234400A0000800831203130C1CA929AA29D3296D
:102354000C10F0308F0060308E000130F807031845
:10236400F90A0030F9070030790264300319780261
:10237400031CBD29BE29C029F801F90183160317DE
:102384004A087902031DC829490878020318CB2991
:10239400CC29D029831203138715D329831203135D
:1023A40087110B1DD629D729F8298316031729036A
:1023B400031DDD29DE29E729A9013008A6002F081D
:1023C400A5002E08A4002D08A3002508F000240869
:1023D400F1002308F20026080A128A11AD270A1612
:1023E4008A110B11833083120313810077088A004A
:1023F400760E8300FE0E7E0E090083120313C301C2
:10240400BF1F052A062A0D2ABE09BF09BE0A0319E1
:10241400BF0A0130C300C11F102A112A182AC0099B
:10242400C109C00A0319C10A0130C306C401C501A8
:102434003E083F0403191F2A202A552A0130C200EE
:102444002C2A01300310BE0DBF0DFF3E031D242AAC
:102454000130C207BF1F2F2A302A232A013003105C
:10246400C40DC50DFF3E031D312A3F084102031D63
:102474003D2A3E084002031C402A412A482A3E08BD
:10248400C0023F08031CC103C102441401300310FD
:10249400BF0CBE0CFF3E031D492A0130C202031DBE
:1024A400542A552A302A43080319592A5A2A5F2ADA
:1024B400C409C509C40A0319C50A4508BF0044086C
:1024C400BE00080083120313EF0183160313A31F36
:1024D4006C2A6D2A762AA209A309A20A0319A30A5F
:1024E400013083120313EF0083160313A11F7B2A09
:1024F4007C2A812AA009A109A00A0319A10A20089B
:1025040021040319862A872ABE2A01308312031361
:10251400EE00972A01300310A00DA10DFF3E031D0C
:102524008D2A013083120313EE0783160313A11FB0
:102534009C2A9D2A8C2A8316031321082302031D37
:10254400A52A20082202031CA82AA92AAF2A2008A7
:10255400A2022108031CA303A30201300310A10C4F
:10256400A00CFF3E031DB02A013083120313EE02B8
:10257400031DBD2ABE2A9D2A83126F080319C32A8C
:10258400C42ACB2A83160313A209A309A20A031996
:10259400A30A831603132308A1002208A00008003D
:1025A400031083120313360D370DBD003D08031DC0
:1025B400DC2ADD2AE62A0030B7000030B6000030FD
:1025C400B5000030B400472B3408B8003508B90012
:1025D4003608BA003708BB001F300310BB0CBA0C16
:1025E400B90CB80CFF3E031DEF2A3808BC00B6171F
:1025F400FF30B405FF30B505FF30B6050030B70530
:102604009630BD02BD1F072B082B202B3D08803AB6
:10261400973E03180E2B0F2B102BDD2A01300310CD
:10262400B70CB60CB50CB40CFF3E031D112B0130D6
:10263400BD07031D1E2B1F2B102B372B20303D02F3
:10264400031C252B262B322BDD2A0130B800031066
:10265400B40DB50DB60DB70DB80B292B0130BD0265
:102664003D08031D362B372B272B3C0803193B2B26
:102674003C2B472BB409B509B609B709B40A0319A9
:10268400B50A0319B60A0319B70A080000308316FD
:1026940003134B05D30000304C05D40080304D05A6
:1026A400D5007F304E05D600560855045404530413
:1026B400031D5D2B5E2B662B0030CE000030CD0059
:1026C4000030CC000030CB0000304F05D300003088
:1026D4005005D40080305105D5007F305205D60016
:1026E4005608550454045304031D792B7A2B822B6A
:1026F4000030D2000030D1000030D0000030CF00D4
:10270400CE1F852B862BAA2B0030D3000030D4009B
:102714000030D5008030D6004B08D3024C08031C8F
:102724004C0F952B962BD4024D08031C4D0F9B2B5D
:102734009C2BD5024E08031C4E0FA12BA22BD602B4
:102744005608CE005508CD005408CC005308CB00E1
:10275400D21FAD2BAE2BD22B0030D3000030D400CF
:102764000030D5008030D6004F08D3025008031C37
:10277400500FBD2BBE2BD4025108031C510FC32B89
:10278400C42BD5025208031C520FC92BCA2BD602E4
:102794005608D2005508D1005408D0005308CF0081
:1027A4008030CE068030D20652084E02031DE42B40
:1027B40051084D02031DE42B50084C02031DE42B69
:1027C4004F084B020318E72BE82BEA2B0310EB2BE3
:1027D4000314080083120313C60046080319F32BDD
:1027E400F42B082CC11FF72BF82B082C3E09C8002A
:1027F4003F09C9004009CA004109CB00C80A0319AE
:10280400C90A0319CA0A0319CB0A102C4108CB00C0
:102814004008CA003F08C9003E08C80041084004F7
:102824003F043E04031D172C182C212C0030C1003A
:102834000030C0000030BF000030BE00A12C963034
:10284400C7002F2C0130C70701300310CB0CCA0C72
:10285400C90CC80CFF3E031D272CFE304B05031D7D
:10286400342C352C242C4F2C0130C7070130C807D9
:10287400003003180130C907003003180130CA07BB
:10288400003003180130CB0701300310CB0CCA0C05
:10289400C90CC80CFF3E031D472CFF304B05031D1C
:1028A400542C552C362C612C0130C7020130C20047
:1028B4000310C80DC90DCA0DCB0DC20B5A2CCA1B6F
:1028C400642C652C6B2C0230470203186A2C6B2C89
:1028D400562C47186E2C6F2C772CFF30C805FF3010
:1028E400C9057F30CA05FF30CB050310C70C470864
:1028F400C200C301C401C50118300310C20DC30DC9
:10290400C40DC50DFF3E031D7F2C4208C8044308B7
:10291400C9044408CA044508CB0446080319932C87
:10292400942C992CC11F972C982C992CCB174B08BD
:10293400C1004A08C0004908BF004808BE0008009A
:1029440083160313C4000030C8000030C7000030F1
:10295400C6000030C500C901CA0183160313440828
:102964000A168A1153210A168A11831203132008A6
:1029740083160313BE008312031321088316031363
:10298400BF00C001C1013E08C5073F080311031879
:10299400013E0319CE2CC607400803110318013E5B
:1029A4000319D52CC707410803110318013E031965
:1029B400DC2CC807203083160313BE00BE0BE02CAA
:1029C4000000013083160313C9070318CA0A003034
:1029D400CA074A08803AFF0080307F02031DF42CA6
:1029E40004304902031CF72CF82CAF2C8316031374
:1029F4004508BE004608BF004708C0004808C1009B
:102A040002300310C10CC00CBF0CBE0CFF3E031DF2
:102A1400032D3F08C3003E08C2004430A3007F30AA
:102A2400A200C030A1000030A00041308312031383
:102A3400D7002030D6000030D5000030D4008316F3
:102A44000313420883120313BE00831603134308BF
:102A540083120313BF00C001C10100300A168A119A
:102A6400EC230A168A11831203134108DB00400881
:102A7400DA003F08D9003E08D8000A128A15382027
:102A84000A168A1183120313570883160313A70027
:102A940083120313560883160313A6008312031329
:102AA400550883160313A5008312031354088316D1
:102AB4000313A4000A168A1136260A168A118316ED
:102AC40003132308BD002208BC002108BB00200812
:102AD400BA00080083160313C4000030C800003095
:102AE400C7000030C6000030C500C901CA01831602
:102AF400031344080A168A1153210A168A118312F1
:102B04000313200883160313BE0083120313210842
:102B140083160313BF00C001C1013E08C5073F0867
:102B240003110318013E0319982DC6074008031129
:102B34000318013E03199F2DC70741080311031809
:102B4400013E0319A62DC807203083160313BE00C7
:102B5400BE0BAA2D0000013083160313C907031806
:102B6400CA0A0030CA074A08803AFF0080307F0250
:102B7400031DBE2D04304902031CC12DC22D792D25
:102B8400831603134508BE004608BF004708C0006B
:102B94004808C10002300310C10CC00CBF0CBE0CAD
:102BA400FF3E031DCD2D3F08C3003E08C200443044
:102BB400A3007F30A200C030A1000030A00041304B
:102BC40083120313D700C030D6000030D500003084
:102BD400D40083160313420883120313BE00831622
:102BE4000313430883120313BF00C001C101003063
:102BF4000A168A11EC230A168A1183120313410858
:102C0400DB004008DA003F08D9003E08D8000A1269
:102C14008A1538200A168A1183120313570883165B
:102C24000313A70083120313560883160313A60085
:102C340083120313550883160313A5008312031389
:102C4400540883160313A4000A168A1136260A169A
:102C54008A11831603132308BD002208BC0021082F
:102C6400BB002008BA000800831603132708B1002C
:102C74008030B1052708A8002807B800A61F432EF6
:102C8400442E452E381438080319492E4A2E5A2E3C
:102C9400380A031D4E2E4F2E572E0030A700003049
:102CA400A6000030A5000030A400A617A701622EDC
:102CB4000030A7000030A6000030A5000030A400BA
:102CC40023088039B1062308A8002807B900A21FE9
:102CD4006C2E6D2E6E2E391439080319722E732E34
:102CE400832E390A031D772E782E802E0030A30000
:102CF4000030A2000030A1000030A000A217A30100
:102D04008B2E0030A3000030A2000030A100003060
:102D1400A0002308220421042004031D922E932ED4
:102D2400AA2E0030A7000030A6000030A500003015
:102D3400A4008030A6047F30A7043108A704270824
:102D4400A3002608A2002508A1002408A000FF2F44
:102D54003808031DAE2EAF2EB82E0030A30000306D
:102D6400A2000030A1000030A000FF2F3808A80006
:102D7400A9012908AB0039082802AA00031CAB03E7
:102D84002A087F3EB2002B080318013E003EB30020
:102D94002708B0002608AF002508AE002408AD00BF
:102DA4000030A7000030A6000030A5000030A400C9
:102DB4000030B7000030B6000030B5000030B40079
:102DC400B9012C2F39080319E82EE92E092F0130F7
:102DD400A8000310AD0DAE0DAF0DB00DA80BEB2E7A
:102DE4000130A8000310A40DA50DA60DA70DA80B76
:102DF400F42EB71FFE2EFF2E002F24140130A8003E
:102E04000310B40DB50DB60DB70DA80B022F230892
:102E14003002031D172F22082F02031D172F21082C
:102E24002E02031D172F20082D02031C1A2F1B2FFF
:102E34002A2F37172008AD022108031C210FAE02E8
:102E44002208031C220FAF022308031C230FB00225
:102E54000130B9071A303902031C312F322FE42E06
:102E640030082F042E042D040319392F3A2F592F1B
:102E74003414592F0130A8000310A40DA50DA60D7C
:102E8400A70DA80B3E2FB71F482F492F4A2F2414F4
:102E94000130A8000310B40DB50DB60DB70DA80B85
:102EA4004C2FFF30B2070318B30AFF30B307A61F35
:102EB4005C2F5D2F3C2FB901B71F612F622F7E2F2E
:102EC400FF303405A800FF303505A900FF30360572
:102ED400AA007F303705AB002B082A0429042804F4
:102EE4000319752F762F792F0130B9007E2F241CFA
:102EF4007C2F7D2F7E2F762F39080319822F832F65
:102F0400B42F0130A407003003180130A5070030A6
:102F140003180130A607003003180130A707271C47
:102F2400942F952FB42F2408A8002508A90026085B
:102F3400AA002708AB000130AC002B0DAB0CAA0C87
:102F4400A90CA80CAC0B9F2F2B08A7002A08A600DD
:102F54002908A5002808A4000130B2070318B30A01
:102F64000030B3073308803AFF0080307F02031D2E
:102F7400BD2FFF303202031CC02FC12FCF2FFF30D3
:102F840083160313B2000030B3000030A7000030F2
:102F9400A6000030A5000030A400831603133308F4
:102FA400803AFF0080307F02031DDA2F01303202A5
:102FB4000318DD2FDE2FEB2F83160313B201B301A9
:102FC4000030A7000030A6000030A5000030A400A7
:102FD400B101831603133208B800381CF22FF32F03
:102FE400F52FA617F72F7F30A6053808A800031081
:0C2FF400280CA7003108A704A12E08003B
:04400E00F423FF3E5A
:00000001FF
